{
  "_format": "hh-sol-artifact-1",
  "contractName": "DeDoctor",
  "sourceName": "contracts/DeDoctor.sol",
  "abi": [
    {
      "anonymous": false,
      "inputs": [
        {
          "indexed": true,
          "internalType": "uint256",
          "name": "id",
          "type": "uint256"
        },
        {
          "indexed": true,
          "internalType": "uint256",
          "name": "patientId",
          "type": "uint256"
        },
        {
          "indexed": true,
          "internalType": "uint256",
          "name": "doctorId",
          "type": "uint256"
        },
        {
          "indexed": false,
          "internalType": "string",
          "name": "symptoms",
          "type": "string"
        },
        {
          "indexed": false,
          "internalType": "string",
          "name": "pastSymptoms",
          "type": "string"
        },
        {
          "indexed": false,
          "internalType": "string",
          "name": "date",
          "type": "string"
        },
        {
          "indexed": false,
          "internalType": "string",
          "name": "time",
          "type": "string"
        },
        {
          "indexed": false,
          "internalType": "address",
          "name": "walletAddress",
          "type": "address"
        }
      ],
      "name": "AppointmentCreated",
      "type": "event"
    },
    {
      "anonymous": false,
      "inputs": [
        {
          "indexed": true,
          "internalType": "uint256",
          "name": "patientId",
          "type": "uint256"
        },
        {
          "indexed": true,
          "internalType": "address",
          "name": "walletAddress",
          "type": "address"
        },
        {
          "indexed": false,
          "internalType": "string",
          "name": "name",
          "type": "string"
        },
        {
          "indexed": false,
          "internalType": "string",
          "name": "gender",
          "type": "string"
        },
        {
          "indexed": false,
          "internalType": "string",
          "name": "city",
          "type": "string"
        },
        {
          "indexed": false,
          "internalType": "string",
          "name": "patientUri",
          "type": "string"
        }
      ],
      "name": "PatientRegistered",
      "type": "event"
    },
    {
      "anonymous": false,
      "inputs": [
        {
          "indexed": true,
          "internalType": "string",
          "name": "name",
          "type": "string"
        },
        {
          "indexed": false,
          "internalType": "string",
          "name": "gender",
          "type": "string"
        },
        {
          "indexed": true,
          "internalType": "string",
          "name": "city",
          "type": "string"
        },
        {
          "indexed": true,
          "internalType": "string",
          "name": "language",
          "type": "string"
        },
        {
          "indexed": false,
          "internalType": "string",
          "name": "profileURI",
          "type": "string"
        },
        {
          "indexed": false,
          "internalType": "address",
          "name": "docAddress",
          "type": "address"
        }
      ],
      "name": "RegisteredDoctor",
      "type": "event"
    },
    {
      "anonymous": false,
      "inputs": [
        {
          "indexed": true,
          "internalType": "string",
          "name": "name",
          "type": "string"
        },
        {
          "indexed": true,
          "internalType": "string",
          "name": "city",
          "type": "string"
        },
        {
          "indexed": true,
          "internalType": "string",
          "name": "ownerName",
          "type": "string"
        },
        {
          "indexed": false,
          "internalType": "address",
          "name": "ownerAddress",
          "type": "address"
        },
        {
          "indexed": false,
          "internalType": "string",
          "name": "number",
          "type": "string"
        },
        {
          "indexed": false,
          "internalType": "string",
          "name": "uri",
          "type": "string"
        }
      ],
      "name": "RegisteredPharmacy",
      "type": "event"
    },
    {
      "inputs": [
        {
          "internalType": "bytes32",
          "name": "message",
          "type": "bytes32"
        },
        {
          "internalType": "bytes",
          "name": "signature",
          "type": "bytes"
        }
      ],
      "name": "authenticatedFunction",
      "outputs": [],
      "stateMutability": "nonpayable",
      "type": "function"
    },
    {
      "inputs": [
        {
          "internalType": "uint256",
          "name": "patientId",
          "type": "uint256"
        },
        {
          "internalType": "uint256",
          "name": "doctorId",
          "type": "uint256"
        },
        {
          "internalType": "string",
          "name": "symptoms",
          "type": "string"
        },
        {
          "internalType": "string",
          "name": "pastSymptoms",
          "type": "string"
        },
        {
          "internalType": "string",
          "name": "date",
          "type": "string"
        },
        {
          "internalType": "string",
          "name": "time",
          "type": "string"
        }
      ],
      "name": "createAppointment",
      "outputs": [],
      "stateMutability": "nonpayable",
      "type": "function"
    },
    {
      "inputs": [],
      "name": "getAllDoctors",
      "outputs": [
        {
          "components": [
            {
              "internalType": "uint256",
              "name": "doctorId",
              "type": "uint256"
            },
            {
              "internalType": "string",
              "name": "name",
              "type": "string"
            },
            {
              "internalType": "string",
              "name": "gender",
              "type": "string"
            },
            {
              "internalType": "string",
              "name": "city",
              "type": "string"
            },
            {
              "internalType": "string",
              "name": "language",
              "type": "string"
            },
            {
              "internalType": "uint256",
              "name": "price",
              "type": "uint256"
            },
            {
              "internalType": "string",
              "name": "profileURI",
              "type": "string"
            },
            {
              "internalType": "address",
              "name": "docAddress",
              "type": "address"
            }
          ],
          "internalType": "struct DeDoctor.DoctorProfile[]",
          "name": "",
          "type": "tuple[]"
        }
      ],
      "stateMutability": "view",
      "type": "function"
    },
    {
      "inputs": [],
      "name": "getAllPharmacies",
      "outputs": [
        {
          "components": [
            {
              "internalType": "uint256",
              "name": "id",
              "type": "uint256"
            },
            {
              "internalType": "string",
              "name": "name",
              "type": "string"
            },
            {
              "internalType": "string",
              "name": "city",
              "type": "string"
            },
            {
              "internalType": "string",
              "name": "ownerName",
              "type": "string"
            },
            {
              "internalType": "address",
              "name": "ownerAddress",
              "type": "address"
            },
            {
              "internalType": "string",
              "name": "number",
              "type": "string"
            },
            {
              "internalType": "string",
              "name": "uri",
              "type": "string"
            }
          ],
          "internalType": "struct DeDoctor.Pharmacy[]",
          "name": "",
          "type": "tuple[]"
        }
      ],
      "stateMutability": "view",
      "type": "function"
    },
    {
      "inputs": [
        {
          "internalType": "uint256",
          "name": "doctorId",
          "type": "uint256"
        }
      ],
      "name": "getAppointmentsByDoctorId",
      "outputs": [
        {
          "components": [
            {
              "internalType": "uint256",
              "name": "id",
              "type": "uint256"
            },
            {
              "internalType": "uint256",
              "name": "patientId",
              "type": "uint256"
            },
            {
              "internalType": "uint256",
              "name": "doctorId",
              "type": "uint256"
            },
            {
              "internalType": "string",
              "name": "appointmentUri",
              "type": "string"
            },
            {
              "internalType": "string",
              "name": "symptoms",
              "type": "string"
            },
            {
              "internalType": "string",
              "name": "pastSymptoms",
              "type": "string"
            },
            {
              "internalType": "string",
              "name": "date",
              "type": "string"
            },
            {
              "internalType": "string",
              "name": "time",
              "type": "string"
            },
            {
              "internalType": "address",
              "name": "walletAddress",
              "type": "address"
            }
          ],
          "internalType": "struct DeDoctor.Appointment[]",
          "name": "",
          "type": "tuple[]"
        }
      ],
      "stateMutability": "view",
      "type": "function"
    },
    {
      "inputs": [
        {
          "internalType": "uint256",
          "name": "patientId",
          "type": "uint256"
        }
      ],
      "name": "getAppointmentsByPatientId",
      "outputs": [
        {
          "components": [
            {
              "internalType": "uint256",
              "name": "id",
              "type": "uint256"
            },
            {
              "internalType": "uint256",
              "name": "patientId",
              "type": "uint256"
            },
            {
              "internalType": "uint256",
              "name": "doctorId",
              "type": "uint256"
            },
            {
              "internalType": "string",
              "name": "appointmentUri",
              "type": "string"
            },
            {
              "internalType": "string",
              "name": "symptoms",
              "type": "string"
            },
            {
              "internalType": "string",
              "name": "pastSymptoms",
              "type": "string"
            },
            {
              "internalType": "string",
              "name": "date",
              "type": "string"
            },
            {
              "internalType": "string",
              "name": "time",
              "type": "string"
            },
            {
              "internalType": "address",
              "name": "walletAddress",
              "type": "address"
            }
          ],
          "internalType": "struct DeDoctor.Appointment[]",
          "name": "",
          "type": "tuple[]"
        }
      ],
      "stateMutability": "view",
      "type": "function"
    },
    {
      "inputs": [
        {
          "internalType": "uint256",
          "name": "doctorId",
          "type": "uint256"
        }
      ],
      "name": "getDoctorById",
      "outputs": [
        {
          "components": [
            {
              "internalType": "uint256",
              "name": "doctorId",
              "type": "uint256"
            },
            {
              "internalType": "string",
              "name": "name",
              "type": "string"
            },
            {
              "internalType": "string",
              "name": "gender",
              "type": "string"
            },
            {
              "internalType": "string",
              "name": "city",
              "type": "string"
            },
            {
              "internalType": "string",
              "name": "language",
              "type": "string"
            },
            {
              "internalType": "uint256",
              "name": "price",
              "type": "uint256"
            },
            {
              "internalType": "string",
              "name": "profileURI",
              "type": "string"
            },
            {
              "internalType": "address",
              "name": "docAddress",
              "type": "address"
            }
          ],
          "internalType": "struct DeDoctor.DoctorProfile",
          "name": "",
          "type": "tuple"
        }
      ],
      "stateMutability": "view",
      "type": "function"
    },
    {
      "inputs": [
        {
          "internalType": "address",
          "name": "walletAddress",
          "type": "address"
        }
      ],
      "name": "getDoctorByWalletAddress",
      "outputs": [
        {
          "components": [
            {
              "internalType": "uint256",
              "name": "doctorId",
              "type": "uint256"
            },
            {
              "internalType": "string",
              "name": "name",
              "type": "string"
            },
            {
              "internalType": "string",
              "name": "gender",
              "type": "string"
            },
            {
              "internalType": "string",
              "name": "city",
              "type": "string"
            },
            {
              "internalType": "string",
              "name": "language",
              "type": "string"
            },
            {
              "internalType": "uint256",
              "name": "price",
              "type": "uint256"
            },
            {
              "internalType": "string",
              "name": "profileURI",
              "type": "string"
            },
            {
              "internalType": "address",
              "name": "docAddress",
              "type": "address"
            }
          ],
          "internalType": "struct DeDoctor.DoctorProfile",
          "name": "",
          "type": "tuple"
        }
      ],
      "stateMutability": "view",
      "type": "function"
    },
    {
      "inputs": [
        {
          "internalType": "address",
          "name": "walletAddress",
          "type": "address"
        }
      ],
      "name": "getPatientByWalletAddress",
      "outputs": [
        {
          "components": [
            {
              "internalType": "uint256",
              "name": "patientId",
              "type": "uint256"
            },
            {
              "internalType": "address",
              "name": "walletAddress",
              "type": "address"
            },
            {
              "internalType": "string",
              "name": "name",
              "type": "string"
            },
            {
              "internalType": "string",
              "name": "gender",
              "type": "string"
            },
            {
              "internalType": "string",
              "name": "city",
              "type": "string"
            },
            {
              "internalType": "string",
              "name": "patientUri",
              "type": "string"
            }
          ],
          "internalType": "struct DeDoctor.Patient",
          "name": "",
          "type": "tuple"
        }
      ],
      "stateMutability": "view",
      "type": "function"
    },
    {
      "inputs": [
        {
          "internalType": "uint256",
          "name": "pharmacyId",
          "type": "uint256"
        }
      ],
      "name": "getPharmacyById",
      "outputs": [
        {
          "components": [
            {
              "internalType": "uint256",
              "name": "id",
              "type": "uint256"
            },
            {
              "internalType": "string",
              "name": "name",
              "type": "string"
            },
            {
              "internalType": "string",
              "name": "city",
              "type": "string"
            },
            {
              "internalType": "string",
              "name": "ownerName",
              "type": "string"
            },
            {
              "internalType": "address",
              "name": "ownerAddress",
              "type": "address"
            },
            {
              "internalType": "string",
              "name": "number",
              "type": "string"
            },
            {
              "internalType": "string",
              "name": "uri",
              "type": "string"
            }
          ],
          "internalType": "struct DeDoctor.Pharmacy",
          "name": "",
          "type": "tuple"
        }
      ],
      "stateMutability": "view",
      "type": "function"
    },
    {
      "inputs": [
        {
          "internalType": "uint256",
          "name": "",
          "type": "uint256"
        }
      ],
      "name": "pharmacies",
      "outputs": [
        {
          "internalType": "uint256",
          "name": "id",
          "type": "uint256"
        },
        {
          "internalType": "string",
          "name": "name",
          "type": "string"
        },
        {
          "internalType": "string",
          "name": "city",
          "type": "string"
        },
        {
          "internalType": "string",
          "name": "ownerName",
          "type": "string"
        },
        {
          "internalType": "address",
          "name": "ownerAddress",
          "type": "address"
        },
        {
          "internalType": "string",
          "name": "number",
          "type": "string"
        },
        {
          "internalType": "string",
          "name": "uri",
          "type": "string"
        }
      ],
      "stateMutability": "view",
      "type": "function"
    },
    {
      "inputs": [
        {
          "internalType": "string",
          "name": "name",
          "type": "string"
        },
        {
          "internalType": "string",
          "name": "gender",
          "type": "string"
        },
        {
          "internalType": "string",
          "name": "city",
          "type": "string"
        },
        {
          "internalType": "string",
          "name": "language",
          "type": "string"
        },
        {
          "internalType": "address",
          "name": "docAddress",
          "type": "address"
        },
        {
          "internalType": "uint256",
          "name": "price",
          "type": "uint256"
        },
        {
          "internalType": "string",
          "name": "profileURI",
          "type": "string"
        }
      ],
      "name": "registerDoctor",
      "outputs": [],
      "stateMutability": "nonpayable",
      "type": "function"
    },
    {
      "inputs": [
        {
          "internalType": "string",
          "name": "name",
          "type": "string"
        },
        {
          "internalType": "address",
          "name": "walletAddress",
          "type": "address"
        },
        {
          "internalType": "string",
          "name": "gender",
          "type": "string"
        },
        {
          "internalType": "string",
          "name": "city",
          "type": "string"
        },
        {
          "internalType": "string",
          "name": "patientUri",
          "type": "string"
        }
      ],
      "name": "registerPatient",
      "outputs": [
        {
          "internalType": "uint256",
          "name": "",
          "type": "uint256"
        }
      ],
      "stateMutability": "nonpayable",
      "type": "function"
    },
    {
      "inputs": [
        {
          "internalType": "string",
          "name": "name",
          "type": "string"
        },
        {
          "internalType": "string",
          "name": "city",
          "type": "string"
        },
        {
          "internalType": "string",
          "name": "ownerName",
          "type": "string"
        },
        {
          "internalType": "address",
          "name": "ownerAddress",
          "type": "address"
        },
        {
          "internalType": "string",
          "name": "number",
          "type": "string"
        },
        {
          "internalType": "string",
          "name": "uri",
          "type": "string"
        }
      ],
      "name": "registerPharmacy",
      "outputs": [
        {
          "components": [
            {
              "internalType": "uint256",
              "name": "id",
              "type": "uint256"
            },
            {
              "internalType": "string",
              "name": "name",
              "type": "string"
            },
            {
              "internalType": "string",
              "name": "city",
              "type": "string"
            },
            {
              "internalType": "string",
              "name": "ownerName",
              "type": "string"
            },
            {
              "internalType": "address",
              "name": "ownerAddress",
              "type": "address"
            },
            {
              "internalType": "string",
              "name": "number",
              "type": "string"
            },
            {
              "internalType": "string",
              "name": "uri",
              "type": "string"
            }
          ],
          "internalType": "struct DeDoctor.Pharmacy",
          "name": "",
          "type": "tuple"
        }
      ],
      "stateMutability": "nonpayable",
      "type": "function"
    },
    {
      "inputs": [
        {
          "internalType": "bytes32",
          "name": "message",
          "type": "bytes32"
        },
        {
          "internalType": "bytes",
          "name": "signature",
          "type": "bytes"
        }
      ],
      "name": "verifySignature",
      "outputs": [
        {
          "internalType": "address",
          "name": "",
          "type": "address"
        }
      ],
      "stateMutability": "pure",
      "type": "function"
    }
  ],
  "bytecode": "0x608060405234801561001057600080fd5b50613bbd806100206000396000f3fe608060405234801561001057600080fd5b50600436106100f55760003560e01c80638ee638c111610097578063d7c385df11610066578063d7c385df1461021a578063daca6f781461023a578063f0d9509014610265578063f33465e41461027a57600080fd5b80638ee638c1146101b457806391e58375146101d4578063b0e8f065146101e7578063d19379271461020757600080fd5b8063588479d7116100d3578063588479d7146101485780637afe24ef146101685780638a5acd731461017b5780638ec1e669146101a157600080fd5b8063182bd69a146100fa578063299529eb1461010f57806343c65db114610135575b600080fd5b61010d610108366004612f2a565b61028f565b005b61012261011d366004612fc8565b6102f3565b6040519081526020015b60405180910390f35b61010d610143366004613086565b6104a5565b61015b610156366004613145565b6107af565b60405161012c91906132c5565b61015b6101763660046132d8565b610c54565b61018e6101893660046132d8565b610f7c565b60405161012c97969594939291906132f1565b61010d6101af366004613375565b61126e565b6101c76101c2366004613461565b6113fd565b60405161012c9190613533565b6101c76101e23660046132d8565b6117cf565b6101fa6101f53660046132d8565b611aff565b60405161012c9190613546565b6101fa6102153660046132d8565b611e80565b61022d610228366004613461565b6121f6565b60405161012c919061365d565b61024d610248366004612f2a565b612541565b6040516001600160a01b03909116815260200161012c565b61026d612611565b60405161012c91906136ee565b6102826129dc565b60405161012c9190613750565b600061029b8383612541565b90506001600160a01b03811633146102ee5760405162461bcd60e51b8152602060048201526011602482015270496e76616c6964207369676e617475726560781b60448201526064015b60405180910390fd5b505050565b600060015b6002548111610378576000818152600660205260409020600101546001600160a01b038088169116036103665760405162461bcd60e51b815260206004820152601660248201527550617469656e7420616c72656164792065786973747360501b60448201526064016102e5565b80610370816137bb565b9150506102f8565b5060028054906000610389836137bb565b90915550506040805160c081018252600280548083526001600160a01b0389811660208086019182528587018d8152606087018c9052608087018b905260a087018a905260009485526006909152959092208451815591516001830180546001600160a01b0319169190921617905592519192919082019061040b9082613856565b50606082015160038201906104209082613856565b50608082015160048201906104359082613856565b5060a0820151600582019061044a9082613856565b50905050846001600160a01b03166002547ff156817296d38a12a62ee341736e236acef84bea88890dcbda800fa3230f5a2f888787876040516104909493929190613916565b60405180910390a35060025495945050505050565b600380549060006104b5836137bb565b909155505060408051610120810182526003805480835260208084018b81528486018b815286518084018852600080825260608801918252608088018d905260a088018c905260c088018b905260e088018a9052336101008901529485526007909352959092208451815591516001830155935160028201559251919291908201906105419082613856565b50608082015160048201906105569082613856565b5060a0820151600582019061056b9082613856565b5060c082015160068201906105809082613856565b5060e082015160078201906105959082613856565b506101009190910151600891820180546001600160a01b0319166001600160a01b03909216919091179055600087815260209182526040808220600380548452600785529183208154600181810184559285529490932083546009909502019384558281015490840155600280830154908401559091908181019061061c9084018261396e565b5060048181019061062f9084018261396e565b506005818101906106429084018261396e565b506006818101906106559084018261396e565b506007818101906106689084018261396e565b50600891820154910180546001600160a01b0319166001600160a01b039092169190911790556000858152600960208181526040808420600380548652600784529185208154600181810184559287529390952085549390940290930191825583830154928201929092556002808401549082015590818101906106ee9084018261396e565b506004818101906107019084018261396e565b506005818101906107149084018261396e565b506006818101906107279084018261396e565b5060078181019061073a9084018261396e565b50600891820154910180546001600160a01b0319166001600160a01b03909216919091179055600354604051869188917fc12c451f8428c3cc06dbf0f68d73764f8d197028635fc083009dc48063f834239061079f9089908990899089903390613a49565b60405180910390a4505050505050565b6107b7612e0a565b600180549060006107c7836137bb565b90915550506040805160e0810182526001805480835260208084018c81528486018c9052606085018b90526001600160a01b038a16608086015260a0850189905260c0850188905260009283526005909152939020825181559251919291908201906108339082613856565b50604082015160028201906108489082613856565b506060820151600382019061085d9082613856565b5060808201516004820180546001600160a01b0319166001600160a01b0390921691909117905560a082015160058201906108989082613856565b5060c082015160068201906108ad9082613856565b50506040516108be91508690613ab1565b6040518091039020866040516108d49190613ab1565b6040518091039020886040516108ea9190613ab1565b60405180910390207f7a0d92006ddb0b84d9ebefad0c181a46dc9b90d53273127464e2c8b074e53df087878760405161092593929190613acd565b60405180910390a46005600060015481526020019081526020016000206040518060e001604052908160008201548152602001600182018054610967906137d4565b80601f0160208091040260200160405190810160405280929190818152602001828054610993906137d4565b80156109e05780601f106109b5576101008083540402835291602001916109e0565b820191906000526020600020905b8154815290600101906020018083116109c357829003601f168201915b505050505081526020016002820180546109f9906137d4565b80601f0160208091040260200160405190810160405280929190818152602001828054610a25906137d4565b8015610a725780601f10610a4757610100808354040283529160200191610a72565b820191906000526020600020905b815481529060010190602001808311610a5557829003601f168201915b50505050508152602001600382018054610a8b906137d4565b80601f0160208091040260200160405190810160405280929190818152602001828054610ab7906137d4565b8015610b045780601f10610ad957610100808354040283529160200191610b04565b820191906000526020600020905b815481529060010190602001808311610ae757829003601f168201915b505050918352505060048201546001600160a01b03166020820152600582018054604090920191610b34906137d4565b80601f0160208091040260200160405190810160405280929190818152602001828054610b60906137d4565b8015610bad5780601f10610b8257610100808354040283529160200191610bad565b820191906000526020600020905b815481529060010190602001808311610b9057829003601f168201915b50505050508152602001600682018054610bc6906137d4565b80601f0160208091040260200160405190810160405280929190818152602001828054610bf2906137d4565b8015610c3f5780601f10610c1457610100808354040283529160200191610c3f565b820191906000526020600020905b815481529060010190602001808311610c2257829003601f168201915b50505050508152505090509695505050505050565b610c5c612e0a565b600560008381526020019081526020016000206040518060e001604052908160008201548152602001600182018054610c94906137d4565b80601f0160208091040260200160405190810160405280929190818152602001828054610cc0906137d4565b8015610d0d5780601f10610ce257610100808354040283529160200191610d0d565b820191906000526020600020905b815481529060010190602001808311610cf057829003601f168201915b50505050508152602001600282018054610d26906137d4565b80601f0160208091040260200160405190810160405280929190818152602001828054610d52906137d4565b8015610d9f5780601f10610d7457610100808354040283529160200191610d9f565b820191906000526020600020905b815481529060010190602001808311610d8257829003601f168201915b50505050508152602001600382018054610db8906137d4565b80601f0160208091040260200160405190810160405280929190818152602001828054610de4906137d4565b8015610e315780601f10610e0657610100808354040283529160200191610e31565b820191906000526020600020905b815481529060010190602001808311610e1457829003601f168201915b505050918352505060048201546001600160a01b03166020820152600582018054604090920191610e61906137d4565b80601f0160208091040260200160405190810160405280929190818152602001828054610e8d906137d4565b8015610eda5780601f10610eaf57610100808354040283529160200191610eda565b820191906000526020600020905b815481529060010190602001808311610ebd57829003601f168201915b50505050508152602001600682018054610ef3906137d4565b80601f0160208091040260200160405190810160405280929190818152602001828054610f1f906137d4565b8015610f6c5780601f10610f4157610100808354040283529160200191610f6c565b820191906000526020600020905b815481529060010190602001808311610f4f57829003601f168201915b5050505050815250509050919050565b60056020526000908152604090208054600182018054919291610f9e906137d4565b80601f0160208091040260200160405190810160405280929190818152602001828054610fca906137d4565b80156110175780601f10610fec57610100808354040283529160200191611017565b820191906000526020600020905b815481529060010190602001808311610ffa57829003601f168201915b50505050509080600201805461102c906137d4565b80601f0160208091040260200160405190810160405280929190818152602001828054611058906137d4565b80156110a55780601f1061107a576101008083540402835291602001916110a5565b820191906000526020600020905b81548152906001019060200180831161108857829003601f168201915b5050505050908060030180546110ba906137d4565b80601f01602080910402602001604051908101604052809291908181526020018280546110e6906137d4565b80156111335780601f1061110857610100808354040283529160200191611133565b820191906000526020600020905b81548152906001019060200180831161111657829003601f168201915b505050600484015460058501805494956001600160a01b0390921694919350915061115d906137d4565b80601f0160208091040260200160405190810160405280929190818152602001828054611189906137d4565b80156111d65780601f106111ab576101008083540402835291602001916111d6565b820191906000526020600020905b8154815290600101906020018083116111b957829003601f168201915b5050505050908060060180546111eb906137d4565b80601f0160208091040260200160405190810160405280929190818152602001828054611217906137d4565b80156112645780601f1061123957610100808354040283529160200191611264565b820191906000526020600020905b81548152906001019060200180831161124757829003601f168201915b5050505050905087565b60008054908061127d836137bb565b909155505060408051610100810182526000805480835260208084018c81528486018c9052606085018b9052608085018a905260a0850188905260c085018790526001600160a01b03891660e08601529183526004905292902081518155915190919060018201906112ef9082613856565b50604082015160028201906113049082613856565b50606082015160038201906113199082613856565b506080820151600482019061132e9082613856565b5060a0820151600582015560c0820151600682019061134d9082613856565b5060e09190910151600790910180546001600160a01b0319166001600160a01b03909216919091179055604051611385908590613ab1565b60405180910390208560405161139b9190613ab1565b6040518091039020886040516113b19190613ab1565b60405180910390207fdd9c708b22055c635545cace9ee3fc755e16aa883b7f1487619fde1b38c6d6dc8985886040516113ec93929190613b0d565b60405180910390a450505050505050565b611405612e50565b60015b6000548111611771576000818152600460205260409020600701546001600160a01b039081169084160361175f5760046000828152602001908152602001600020604051806101000160405290816000820154815260200160018201805461146f906137d4565b80601f016020809104026020016040519081016040528092919081815260200182805461149b906137d4565b80156114e85780601f106114bd576101008083540402835291602001916114e8565b820191906000526020600020905b8154815290600101906020018083116114cb57829003601f168201915b50505050508152602001600282018054611501906137d4565b80601f016020809104026020016040519081016040528092919081815260200182805461152d906137d4565b801561157a5780601f1061154f5761010080835404028352916020019161157a565b820191906000526020600020905b81548152906001019060200180831161155d57829003601f168201915b50505050508152602001600382018054611593906137d4565b80601f01602080910402602001604051908101604052809291908181526020018280546115bf906137d4565b801561160c5780601f106115e15761010080835404028352916020019161160c565b820191906000526020600020905b8154815290600101906020018083116115ef57829003601f168201915b50505050508152602001600482018054611625906137d4565b80601f0160208091040260200160405190810160405280929190818152602001828054611651906137d4565b801561169e5780601f106116735761010080835404028352916020019161169e565b820191906000526020600020905b81548152906001019060200180831161168157829003601f168201915b50505050508152602001600582015481526020016006820180546116c1906137d4565b80601f01602080910402602001604051908101604052809291908181526020018280546116ed906137d4565b801561173a5780601f1061170f5761010080835404028352916020019161173a565b820191906000526020600020905b81548152906001019060200180831161171d57829003601f168201915b5050509183525050600791909101546001600160a01b03166020909101529392505050565b80611769816137bb565b915050611408565b5060405162461bcd60e51b815260206004820152602c60248201527f4e6f20646f63746f7220666f756e6420666f722074686520676976656e20776160448201526b6c6c6574206164647265737360a01b60648201526084016102e5565b6117d7612e50565b600460008381526020019081526020016000206040518061010001604052908160008201548152602001600182018054611810906137d4565b80601f016020809104026020016040519081016040528092919081815260200182805461183c906137d4565b80156118895780601f1061185e57610100808354040283529160200191611889565b820191906000526020600020905b81548152906001019060200180831161186c57829003601f168201915b505050505081526020016002820180546118a2906137d4565b80601f01602080910402602001604051908101604052809291908181526020018280546118ce906137d4565b801561191b5780601f106118f05761010080835404028352916020019161191b565b820191906000526020600020905b8154815290600101906020018083116118fe57829003601f168201915b50505050508152602001600382018054611934906137d4565b80601f0160208091040260200160405190810160405280929190818152602001828054611960906137d4565b80156119ad5780601f10611982576101008083540402835291602001916119ad565b820191906000526020600020905b81548152906001019060200180831161199057829003601f168201915b505050505081526020016004820180546119c6906137d4565b80601f01602080910402602001604051908101604052809291908181526020018280546119f2906137d4565b8015611a3f5780601f10611a1457610100808354040283529160200191611a3f565b820191906000526020600020905b815481529060010190602001808311611a2257829003601f168201915b5050505050815260200160058201548152602001600682018054611a62906137d4565b80601f0160208091040260200160405190810160405280929190818152602001828054611a8e906137d4565b8015611adb5780601f10611ab057610100808354040283529160200191611adb565b820191906000526020600020905b815481529060010190602001808311611abe57829003601f168201915b5050509183525050600791909101546001600160a01b031660209091015292915050565b606060096000838152602001908152602001600020805480602002602001604051908101604052809291908181526020016000905b82821015611e75578382906000526020600020906009020160405180610120016040529081600082015481526020016001820154815260200160028201548152602001600382018054611b86906137d4565b80601f0160208091040260200160405190810160405280929190818152602001828054611bb2906137d4565b8015611bff5780601f10611bd457610100808354040283529160200191611bff565b820191906000526020600020905b815481529060010190602001808311611be257829003601f168201915b50505050508152602001600482018054611c18906137d4565b80601f0160208091040260200160405190810160405280929190818152602001828054611c44906137d4565b8015611c915780601f10611c6657610100808354040283529160200191611c91565b820191906000526020600020905b815481529060010190602001808311611c7457829003601f168201915b50505050508152602001600582018054611caa906137d4565b80601f0160208091040260200160405190810160405280929190818152602001828054611cd6906137d4565b8015611d235780601f10611cf857610100808354040283529160200191611d23565b820191906000526020600020905b815481529060010190602001808311611d0657829003601f168201915b50505050508152602001600682018054611d3c906137d4565b80601f0160208091040260200160405190810160405280929190818152602001828054611d68906137d4565b8015611db55780601f10611d8a57610100808354040283529160200191611db5565b820191906000526020600020905b815481529060010190602001808311611d9857829003601f168201915b50505050508152602001600782018054611dce906137d4565b80601f0160208091040260200160405190810160405280929190818152602001828054611dfa906137d4565b8015611e475780601f10611e1c57610100808354040283529160200191611e47565b820191906000526020600020905b815481529060010190602001808311611e2a57829003601f168201915b5050509183525050600891909101546001600160a01b03166020918201529082526001929092019101611b34565b505050509050919050565b606060086000838152602001908152602001600020805480602002602001604051908101604052809291908181526020016000905b82821015611e75578382906000526020600020906009020160405180610120016040529081600082015481526020016001820154815260200160028201548152602001600382018054611f07906137d4565b80601f0160208091040260200160405190810160405280929190818152602001828054611f33906137d4565b8015611f805780601f10611f5557610100808354040283529160200191611f80565b820191906000526020600020905b815481529060010190602001808311611f6357829003601f168201915b50505050508152602001600482018054611f99906137d4565b80601f0160208091040260200160405190810160405280929190818152602001828054611fc5906137d4565b80156120125780601f10611fe757610100808354040283529160200191612012565b820191906000526020600020905b815481529060010190602001808311611ff557829003601f168201915b5050505050815260200160058201805461202b906137d4565b80601f0160208091040260200160405190810160405280929190818152602001828054612057906137d4565b80156120a45780601f10612079576101008083540402835291602001916120a4565b820191906000526020600020905b81548152906001019060200180831161208757829003601f168201915b505050505081526020016006820180546120bd906137d4565b80601f01602080910402602001604051908101604052809291908181526020018280546120e9906137d4565b80156121365780601f1061210b57610100808354040283529160200191612136565b820191906000526020600020905b81548152906001019060200180831161211957829003601f168201915b5050505050815260200160078201805461214f906137d4565b80601f016020809104026020016040519081016040528092919081815260200182805461217b906137d4565b80156121c85780601f1061219d576101008083540402835291602001916121c8565b820191906000526020600020905b8154815290600101906020018083116121ab57829003601f168201915b5050509183525050600891909101546001600160a01b03166020918201529082526001929092019101611eb5565b6122386040518060c001604052806000815260200160006001600160a01b03168152602001606081526020016060815260200160608152602001606081525090565b60015b6002548111612504576000818152600660205260409020600101546001600160a01b038085169116036124f257600081815260066020908152604091829020825160c0810184528154815260018201546001600160a01b03169281019290925260028101805492939192918401916122b2906137d4565b80601f01602080910402602001604051908101604052809291908181526020018280546122de906137d4565b801561232b5780601f106123005761010080835404028352916020019161232b565b820191906000526020600020905b81548152906001019060200180831161230e57829003601f168201915b50505050508152602001600382018054612344906137d4565b80601f0160208091040260200160405190810160405280929190818152602001828054612370906137d4565b80156123bd5780601f10612392576101008083540402835291602001916123bd565b820191906000526020600020905b8154815290600101906020018083116123a057829003601f168201915b505050505081526020016004820180546123d6906137d4565b80601f0160208091040260200160405190810160405280929190818152602001828054612402906137d4565b801561244f5780601f106124245761010080835404028352916020019161244f565b820191906000526020600020905b81548152906001019060200180831161243257829003601f168201915b50505050508152602001600582018054612468906137d4565b80601f0160208091040260200160405190810160405280929190818152602001828054612494906137d4565b80156124e15780601f106124b6576101008083540402835291602001916124e1565b820191906000526020600020905b8154815290600101906020018083116124c457829003601f168201915b505050505081525050915050919050565b806124fc816137bb565b91505061223b565b5060405162461bcd60e51b815260206004820152601160248201527014185d1a595b9d081b9bdd08199bdd5b99607a1b60448201526064016102e5565b6040517f19457468657265756d205369676e6564204d6573736167653a0a3332000000006020820152603c81018390526000908190605c01604051602081830303815290604052805190602001209050600080600061259f86612d98565b60408051600081526020810180835289905260ff8516918101919091526060810183905260808101829052929550909350915060019060a0016020604051602081039080840390855afa1580156125fa573d6000803e3d6000fd5b505050602060405103519450505050505b92915050565b60606000805467ffffffffffffffff81111561262f5761262f612e9e565b60405190808252806020026020018201604052801561266857816020015b612655612e50565b81526020019060019003908161264d5790505b50905060005b6000548110156129d65760046000612687836001613b4b565b815260200190815260200160002060405180610100016040529081600082015481526020016001820180546126bb906137d4565b80601f01602080910402602001604051908101604052809291908181526020018280546126e7906137d4565b80156127345780601f1061270957610100808354040283529160200191612734565b820191906000526020600020905b81548152906001019060200180831161271757829003601f168201915b5050505050815260200160028201805461274d906137d4565b80601f0160208091040260200160405190810160405280929190818152602001828054612779906137d4565b80156127c65780601f1061279b576101008083540402835291602001916127c6565b820191906000526020600020905b8154815290600101906020018083116127a957829003601f168201915b505050505081526020016003820180546127df906137d4565b80601f016020809104026020016040519081016040528092919081815260200182805461280b906137d4565b80156128585780601f1061282d57610100808354040283529160200191612858565b820191906000526020600020905b81548152906001019060200180831161283b57829003601f168201915b50505050508152602001600482018054612871906137d4565b80601f016020809104026020016040519081016040528092919081815260200182805461289d906137d4565b80156128ea5780601f106128bf576101008083540402835291602001916128ea565b820191906000526020600020905b8154815290600101906020018083116128cd57829003601f168201915b505050505081526020016005820154815260200160068201805461290d906137d4565b80601f0160208091040260200160405190810160405280929190818152602001828054612939906137d4565b80156129865780601f1061295b57610100808354040283529160200191612986565b820191906000526020600020905b81548152906001019060200180831161296957829003601f168201915b5050509183525050600791909101546001600160a01b031660209091015282518390839081106129b8576129b8613b5e565b602002602001018190525080806129ce906137bb565b91505061266e565b50919050565b6060600060015467ffffffffffffffff8111156129fb576129fb612e9e565b604051908082528060200260200182016040528015612a3457816020015b612a21612e0a565b815260200190600190039081612a195790505b50905060015b60015481116129d657600560008281526020019081526020016000206040518060e001604052908160008201548152602001600182018054612a7b906137d4565b80601f0160208091040260200160405190810160405280929190818152602001828054612aa7906137d4565b8015612af45780601f10612ac957610100808354040283529160200191612af4565b820191906000526020600020905b815481529060010190602001808311612ad757829003601f168201915b50505050508152602001600282018054612b0d906137d4565b80601f0160208091040260200160405190810160405280929190818152602001828054612b39906137d4565b8015612b865780601f10612b5b57610100808354040283529160200191612b86565b820191906000526020600020905b815481529060010190602001808311612b6957829003601f168201915b50505050508152602001600382018054612b9f906137d4565b80601f0160208091040260200160405190810160405280929190818152602001828054612bcb906137d4565b8015612c185780601f10612bed57610100808354040283529160200191612c18565b820191906000526020600020905b815481529060010190602001808311612bfb57829003601f168201915b505050918352505060048201546001600160a01b03166020820152600582018054604090920191612c48906137d4565b80601f0160208091040260200160405190810160405280929190818152602001828054612c74906137d4565b8015612cc15780601f10612c9657610100808354040283529160200191612cc1565b820191906000526020600020905b815481529060010190602001808311612ca457829003601f168201915b50505050508152602001600682018054612cda906137d4565b80601f0160208091040260200160405190810160405280929190818152602001828054612d06906137d4565b8015612d535780601f10612d2857610100808354040283529160200191612d53565b820191906000526020600020905b815481529060010190602001808311612d3657829003601f168201915b50505050508152505082600183612d6a9190613b74565b81518110612d7a57612d7a613b5e565b60200260200101819052508080612d90906137bb565b915050612a3a565b60008060008351604114612dee5760405162461bcd60e51b815260206004820152601860248201527f496e76616c6964207369676e6174757265206c656e677468000000000000000060448201526064016102e5565b5050506020810151604082015160609092015160001a92909190565b6040518060e001604052806000815260200160608152602001606081526020016060815260200160006001600160a01b0316815260200160608152602001606081525090565b6040518061010001604052806000815260200160608152602001606081526020016060815260200160608152602001600081526020016060815260200160006001600160a01b031681525090565b634e487b7160e01b600052604160045260246000fd5b600067ffffffffffffffff80841115612ecf57612ecf612e9e565b604051601f8501601f19908116603f01168101908282118183101715612ef757612ef7612e9e565b81604052809350858152868686011115612f1057600080fd5b858560208301376000602087830101525050509392505050565b60008060408385031215612f3d57600080fd5b82359150602083013567ffffffffffffffff811115612f5b57600080fd5b8301601f81018513612f6c57600080fd5b612f7b85823560208401612eb4565b9150509250929050565b600082601f830112612f9657600080fd5b612fa583833560208501612eb4565b9392505050565b80356001600160a01b0381168114612fc357600080fd5b919050565b600080600080600060a08688031215612fe057600080fd5b853567ffffffffffffffff80821115612ff857600080fd5b61300489838a01612f85565b965061301260208901612fac565b9550604088013591508082111561302857600080fd5b61303489838a01612f85565b9450606088013591508082111561304a57600080fd5b61305689838a01612f85565b9350608088013591508082111561306c57600080fd5b5061307988828901612f85565b9150509295509295909350565b60008060008060008060c0878903121561309f57600080fd5b8635955060208701359450604087013567ffffffffffffffff808211156130c557600080fd5b6130d18a838b01612f85565b955060608901359150808211156130e757600080fd5b6130f38a838b01612f85565b9450608089013591508082111561310957600080fd5b6131158a838b01612f85565b935060a089013591508082111561312b57600080fd5b5061313889828a01612f85565b9150509295509295509295565b60008060008060008060c0878903121561315e57600080fd5b863567ffffffffffffffff8082111561317657600080fd5b6131828a838b01612f85565b9750602089013591508082111561319857600080fd5b6131a48a838b01612f85565b965060408901359150808211156131ba57600080fd5b6131c68a838b01612f85565b95506130f360608a01612fac565b60005b838110156131ef5781810151838201526020016131d7565b50506000910152565b600081518084526132108160208601602086016131d4565b601f01601f19169290920160200192915050565b805182526000602082015160e0602085015261324360e08501826131f8565b90506040830151848203604086015261325c82826131f8565b9150506060830151848203606086015261327682826131f8565b91505060018060a01b03608084015116608085015260a083015184820360a08601526132a282826131f8565b91505060c083015184820360c08601526132bc82826131f8565b95945050505050565b602081526000612fa56020830184613224565b6000602082840312156132ea57600080fd5b5035919050565b87815260e06020820152600061330a60e08301896131f8565b828103604084015261331c81896131f8565b9050828103606084015261333081886131f8565b6001600160a01b038716608085015283810360a0850152905061335381866131f8565b905082810360c084015261336781856131f8565b9a9950505050505050505050565b600080600080600080600060e0888a03121561339057600080fd5b873567ffffffffffffffff808211156133a857600080fd5b6133b48b838c01612f85565b985060208a01359150808211156133ca57600080fd5b6133d68b838c01612f85565b975060408a01359150808211156133ec57600080fd5b6133f88b838c01612f85565b965060608a013591508082111561340e57600080fd5b61341a8b838c01612f85565b955061342860808b01612fac565b945060a08a0135935060c08a013591508082111561344557600080fd5b506134528a828b01612f85565b91505092959891949750929550565b60006020828403121561347357600080fd5b612fa582612fac565b600061010082518452602083015181602086015261349c828601826131f8565b915050604083015184820360408601526134b682826131f8565b915050606083015184820360608601526134d082826131f8565b915050608083015184820360808601526134ea82826131f8565b91505060a083015160a085015260c083015184820360c086015261350e82826131f8565b91505060e083015161352b60e08601826001600160a01b03169052565b509392505050565b602081526000612fa5602083018461347c565b60006020808301818452808551808352604092508286019150828160051b87010184880160005b8381101561364f57603f198984030185528151610120815185528882015189860152878201518886015260608083015182828801526135ae838801826131f8565b92505050608080830151868303828801526135c983826131f8565b9250505060a080830151868303828801526135e483826131f8565b9250505060c080830151868303828801526135ff83826131f8565b9250505060e0808301518683038288015261361a83826131f8565b9250505061010080830151925061363b818701846001600160a01b03169052565b50958801959350509086019060010161356d565b509098975050505050505050565b602081528151602082015260018060a01b0360208301511660408201526000604083015160c0606084015261369560e08401826131f8565b90506060840151601f19808584030160808601526136b383836131f8565b925060808601519150808584030160a08601526136d083836131f8565b925060a08601519150808584030160c0860152506132bc82826131f8565b6000602080830181845280855180835260408601915060408160051b870101925083870160005b8281101561374357603f1988860301845261373185835161347c565b94509285019290850190600101613715565b5092979650505050505050565b6000602080830181845280855180835260408601915060408160051b870101925083870160005b8281101561374357603f19888603018452613793858351613224565b94509285019290850190600101613777565b634e487b7160e01b600052601160045260246000fd5b6000600182016137cd576137cd6137a5565b5060010190565b600181811c908216806137e857607f821691505b6020821081036129d657634e487b7160e01b600052602260045260246000fd5b601f8211156102ee57600081815260208120601f850160051c8101602086101561382f5750805b601f850160051c820191505b8181101561384e5782815560010161383b565b505050505050565b815167ffffffffffffffff81111561387057613870612e9e565b6138848161387e84546137d4565b84613808565b602080601f8311600181146138b957600084156138a15750858301515b600019600386901b1c1916600185901b17855561384e565b600085815260208120601f198616915b828110156138e8578886015182559484019460019091019084016138c9565b50858210156139065787850151600019600388901b60f8161c191681555b5050505050600190811b01905550565b60808152600061392960808301876131f8565b828103602084015261393b81876131f8565b9050828103604084015261394f81866131f8565b9050828103606084015261396381856131f8565b979650505050505050565b818103613979575050565b61398382546137d4565b67ffffffffffffffff81111561399b5761399b612e9e565b6139a98161387e84546137d4565b6000601f8211600181146139dd57600083156139c55750848201545b600019600385901b1c1916600184901b178455613a42565b600085815260209020601f19841690600086815260209020845b83811015613a1757828601548255600195860195909101906020016139f7565b5085831015613a355781850154600019600388901b60f8161c191681555b50505060018360011b0184555b5050505050565b60a081526000613a5c60a08301886131f8565b8281036020840152613a6e81886131f8565b90508281036040840152613a8281876131f8565b90508281036060840152613a9681866131f8565b91505060018060a01b03831660808301529695505050505050565b60008251613ac38184602087016131d4565b9190910192915050565b6001600160a01b0384168152606060208201819052600090613af1908301856131f8565b8281036040840152613b0381856131f8565b9695505050505050565b606081526000613b2060608301866131f8565b8281036020840152613b3281866131f8565b91505060018060a01b0383166040830152949350505050565b8082018082111561260b5761260b6137a5565b634e487b7160e01b600052603260045260246000fd5b8181038181111561260b5761260b6137a556fea2646970667358221220387a6170081ef6d0593848cbfbb8bbcf1c13368a798257b35e00f24dad490a6264736f6c63430008110033",
  "linkReferences": {},
  "deployedLinkReferences": {}
}